:0D0ED3007580FF7590FF75A0FF75B0FF22C0
:070F0200D288D2B8C2A82278
:100EA500438901758CD5758A9DD28CD2A9C2B92288
:100EB500438920758DFD758BFDD28EC2ABC2BB22D9
:0C0EED00759850D2BCD2ACC299C29822B9
:04000E0075E107226F
:100E900012000E120ED3120EA5120EB5120F021270
:050EA0000EEDD2AF22AF
:100D8C00E4FEFDC290EF30E704D2A48002C2A4EED0
:100D9C0025E0FED282308203430601D290EF25E09B
:070DAC00FF0DBD08DEAF06DC
:010DB300221D
:100DB400AC07C2837FFF120D8C7FFF120D8C7FFF67
:100DC400120D8C7FFE120D8CD283C283AF04120DE0
:040DD4008CD2832218
:10098A00E4FCFBFAF51AC290C283C283C283C28313
:10099A00120D8C7FFE120D8CAC077FFE120D8CABF4
:1009AA00077FFE120D8CAA07AF04E48F19F518F51C
:1009BA0017F516AE18AD17AC1678081202008F1983
:1009CA008E188D178C16AF03E5194FF519E518F532
:1009DA0018E517F517E516F516AF19AE18AD17FC99
:1009EA0078081202008F198E188D178C16AF02E53F
:1009FA00194FF519E518F518E517F517E516F5165F
:090A0A00D283AF19AE18AD17FC40
:010A130022C0
:100DD800AE07AC03AB05C283EE4440FF120D8CAFE7
:100DE80003120D8CAF04120D8CAF19120D8CD28327
:010DF80022D8
:100DF9003031323334353637383941424344454648
:100E09000004ED010203040506C9CDCACED1D5D22D
:010E1900D602
:100C5F00C118010A0002080000C11A012E00580035
:100C6F002B0000000000000000000000000000004A
:100C7F0000000000000000000058001300000000FA
:100C8F000000000000000000000000000000000055
:100C9F00000000000C50D9C7D9C7D9C7D9C7D9C7C9
:050CAF00D9C70162003D
:0C0EE000E4FEEED39F500500000E80F6EB
:010EEC0022E3
:060CF9008B128A1389141E
:100CFF00E4FFFEEEC39518502EAB15AA16A91712D6
:100D0F0000262FFF0517E5177002051614F91200BC
:100D1F0026FDAB120514E514AA137002051314F97E
:070D2F00ED12003F0E80CC25
:010D3600229A
:100E7900EFC39430400CEFD394395006C3EF94304C
:070E8900FF22EF24C9FF2244
:1003F6008B248A2589268F2A8E298D288C270526E7
:10040600E5267002052514F9742012003F7BA07AB8
:100416008679017800AF2AAE29AD28AC27120131C2
:1004260074F92FF582740D3EF583E493FFAB240532
:1004360026E526AA257002052514F9EF12003F7B52
:10044600A07A8679017800AF2AAE29AD28AC2712AA
:100456000131AC00AD01AE02AF03E47B107A27F99F
:10046600F812013174F92FF582740D3EF583E49389
:10047600FFAB240526E526AA257002052514F9EF0B
:1004860012003FE52BB44913AB240526E526AA2521
:100496007002052514F9742E12003FE47B107A27AA
:1004A600F9F8AF2AAE29AD28AC27120131AC00AD60
:1004B60001AE02AF03E47BE87A03F9F81201317466
:1004C600F92FF582740D3EF583E493FFAB240526E0
:1004D600E526AA257002052514F9EF12003FE47BF4
:1004E600E87A03F9F8AF2AAE29AD28AC2712013114
:1004F600AC00AD01AE02AF03E47B64FAF9F8120179
:100506003174F92FF582740D3EF583E493FFAB2425
:100516000526E526AA257002052514F9EF12003FE7
:10052600E52B64566005E52BB45013AB240526E590
:1005360026AA257002052514F9742E12003FE47BC5
:1005460064FAF9F8AF2AAE29AD28AC27120131AC0E
:1005560000AD01AE02AF03E47B0AFAF9F8120131ED
:1005660074F92FF582740D3EF583E493FFAB2405F1
:1005760026E526AA257002052514F9EF12003FE4A8
:100586007B0AFAF9F8AF2AAE29AD28AC2712013159
:1005960074F92BF582740D3AF583E493FFAB2405C9
:0F05A60026E526AA257002052514F9EF02003F6D
:100D3700E50E24FB600C14601A240370197863769F
:100D47004422782DA60F78637643750A02E4F508E6
:0B0D5700F50922020B177863765A2280
:1007CC00782F766C087663782CE67831F67863E6C9
:1007DC0024BF605C24FE602D24E9606724167077CA
:1007EC0075150175160075172B7518187B007A0096
:1007FC007932120CF97831E62F784AF608760D78B2
:10080C005C761D8052900011E07832F6900010E07A
:10081C0008F690000FE008F690000BE008F6900048
:10082C000AE008F6900009E008F6785C7609802763
:10083C007832764108764308764B08765D785C769C
:10084C000780147832766E08764108764308764B2A
:10085C0008765D785C7608E4785DF6C2A1D299786A
:02086C0063F631
:01086E002267
:10071800E4F51CF51DF51B051DE51DAE1C70020555
:100728001C14FF120E1A7400251BF582E43400F520
:1007380083EFF0051BE51BC3941340DB900012E028
:1007480060030207CB900002E0FD900001E0FB90FF
:100758000000E0F5197F02120DD8900005E0FD9029
:100768000004E0FB900003E0F5197F04120DD89017
:100778000008E0FD900007E0FB900006E0F5197F17
:1007880006120DD890000BE0FD90000AE0FB9000E7
:1007980009E0F5197F08120DD890000EE0FD9000D1
:1007A8000DE0FB90000CE0F5197F20120DD89000A9
:1007B80011E0FD900010E0FB90000FE0F5197F229A
:0307C800120DD837
:0107CB00220B
:1005B500E4F513F514AF14AE13120E5B7F021209A6
:1005C5008A785E12021F785E120213900000EFF027
:1005D500785E12021378081201EC900001EFF078B2
:1005E5005E12021378101201EC900002EFF07F0406
:1005F50012098A785E12021F785E120213900003B8
:10060500EFF0785E12021378081201EC900004EF07
:10061500F0785E12021378101201EC900005EFF0ED
:100625007F0612098A785E12021F785E1202139005
:100635000006EFF0785E12021378081201EC9000C4
:1006450007EFF0785E12021378101201EC900008A3
:10065500EFF07F0812098A785E12021F785E120297
:1006650013900009EFF0785E12021378081201EC7E
:1006750090000AEFF0785E12021378101201EC90E8
:10068500000BEFF07F2012098A785E12021F785E58
:1006950012021390000CEFF0785E12021378081224
:1006A50001EC90000DEFF0785E1202137810120144
:1006B500EC90000EEFF07F2212098A785E12021F7D
:1006C500785E12021390000FEFF0785E1202137835
:1006D500081201EC900010EFF0785E12021378100A
:1006E5001201EC900011EFF0E4A3F0F5120514E50A
:1006F50014AE137002051314FF74002512F582E47D
:100705003400F583E0FD120E3B0512E512C3941388
:0207150040DBC7
:0107170022BF
:100A9600AE08AF097C007D1E120051ED4C7002B20B
:100AA60019E50964644508700FC2A7782EF6D2814D
:100AB600C2B4C2B5C280C2B2E50964674508700215
:100AC600D2A7E509646845087026C2837FFF120D28
:100AD6008C7FFF120D8C7FFF120D8C7FFE120D8C0A
:100AE600D2837519637B10E4FDFF120DD8120C0733
:100AF600E509646A450870187FE8120DB4782CA6DB
:100B060090E6C4540FF6750A01E4F508F509D2A17A
:010B160022BC
:10022B007F1E12098A785E12021F785E1202138FEC
:10023B0022785E12021378081201EC8F21785E127D
:10024B00021378101201EC8F202007030203E078D1
:10025B006206E664036033852219AB21AD207F1E55
:10026B00120DD87F1812098A8F158E148D138C12CC
:10027B007F1612098A8F158E148D138C127F121212
:10028B00098A8F158E148D138C127862E6C3940332
:10029B0050030203E0E4F67F1812098A8F158E14BF
:1002AB008D138C1278081201D98F158E148D138C27
:1002BB0012782EE6FD25E025E02413F582E43400C8
:1002CB00F583EEF0A3EFF0ED25E02450F8E6FE0801
:1002DB00E6FFE4FCFDAB15AA14A913A8121200A6A5
:1002EB008F158E148D138C1278101201D98F158ED9
:1002FB00148D138C12782EE6FB25E025E0242CF5CB
:10030B0082E43400F583EFF078081201D9EB25E095
:10031B0025E0242BF582E43400F583EFF07F1612F1
:10032B00098A8F158E148D138C1278081201D98FB0
:10033B00158E148D138C12900E0AE493FE74019398
:10034B00FFE4FCFDAB15AA14A913A8121200A68F8B
:10035B00158E148D138C1278101201D98F158E14E3
:10036B008D138C12782EE6FB25E025E0242EF582EA
:10037B00E43400F583EFF078081201D9EB25E02582
:10038B00E0242DF582E43400F583EFF0852219ABE0
:10039B0021AD207F1E120DD8782E06E6C3940640A1
:1003AB0002E4F6782EE6900E0C93784EF6D280D2BD
:1003BB00B230E004D2818002C281784EE6FF30E198
:1003CB0004D2B48002C2B4EF30E204D2B58002C2D0
:1003DB00B5C280C2B2AE08AF097C007D6412005179
:0A03EB00ED4C7006F508F509B21993
:0103F50022E5
:100D62007F1E12098A785E12021F785E1202138FAA
:100D720022785E12021378081201EC8F21785E123B
:0A0D8200021378101201EC8F2022FA
:10086F00C2A3E4782EF6D281C2B4C2B50000000054
:10087F00C280C2B200000000000000007FC8120E4C
:10088F00E07519FF7BFF7DFF7F1E120DD800000062
:10089F00007FC8120EE07FA0120DB400000000759B
:1008AF0019FF7BFF7DFF7F1E120DD8000000007F18
:1008BF00C8120EE0782DE6900E1293FF120DB4C2FF
:1008CF0007200708120D6275E13880F5852219ABF4
:1008DF0021AD207F1E120DD81205B57FE8120DB481
:0F08EF0078637643D219750A01E4F508F50922FA
:100B1700C2A3751702751800AF18AE17120E5BE463
:100B2700F512E51225E025E02413F582E43400F5FB
:100B370083E0FEA3E0FBAA06E4F9F8FFFE7DF07C64
:100B470055120CB58E158F16E51225E02450F8A620
:100B57001508A616851613E515F5140518E518AE3C
:100B6700177002051714FFAD14120E3B0518E51890
:100B7700AE177002051714FFAD13120E3B0512E5F1
:0F0B870012D39405409C7D017F127E02020E3B2B
:100C07007514027515007F127E02120E1AEF640129
:100C17007045F5120515E515AE147002051414FF9D
:100C2700120E1A8F130515E515AE1470020514146C
:100C3700FF120E1AAD07AF13EF7F00FEED2FFFE493
:100C47003EFEE51225E02450F8A60608A607051281
:070C5700E512D3940540BD36
:010C5E002273
:05000600A21992A322E3
:100B9600C21BD2A1C2A3120E9075E138209708207D
:100BA6001B05120B17D21B3018EFC21875E138302F
:100BB6001A05120D37C21A7863E660031207CCAE27
:100BC60008AF09E4FCFD7BFA7AFFF9F8D31201C3FA
:100BD60040080509E50970020508E50A14600C14C9
:100BE600600E2402700F120A96801112022B800CDE
:100BF60012086F8007E4F50AF508F5091200068069
:010C06009855
:03000300020012E6
:0100120032BB
:03000B00020EF9E9
:090EF900758CD5758A9DD2183262
:03001300020016D2
:0100160032B7
:03001B00020017C9
:0100170032B6
:03002300020A14BA
:0F0A1400C0E0C0D075D000C000C001C006C00750
:100A2300309843C298201A3EAF99BF4C04784F7652
:100A330000784FE606240BF8A607784FE6640770A4
:100A430025F6E50CB4571FE50E6403600BE50E6451
:100A5300056005E50EB4060EE511B40D09E50D7844
:100A63002C667002D21A30991DC299795DE7C3785A
:100A73005C9650107F0A120EE008E606242FF8E673
:060A8300F5998002D2A1EA
:0D0A8900D007D006D001D000D0D0D0E03290
:0E0EC500E4F5E7F5E5F5E675E3FF75E4FF22D9
:040E1A00AD07AC066E
:100E1E0075E78575E5018CE3AF058FE475E64675DC
:0C0E2E00E6B90000000000AFE2120EC5A3
:010E3A002295
:100E3B00AB07AA0675E78575E5028AE3AF038FE476
:100E4B008DE275E64675E6B90000000000020EC59E
:100E5B00AD07AC0675E78575E5038CE3AF058FE44D
:0E0E6B0075E64675E6B90000000000020EC5EF
:030000000208FEF5
:0C08FE00787FE4F6D8FD7581630209459F
:10002600BB010689828A83E0225002E722BBFE02D8
:09003600E32289828A83E493220B
:10003F00BB010689828A83F0225002F722BBFE01A0
:02004F00F3229A
:10005100BC000BBE0029EF8DF084FFADF022E4CC93
:10006100F875F008EF2FFFEE33FEEC33FCEE9DEC5C
:10007100984005FCEE9DFE0FD5F0E9E4CEFD22EDA2
:10008100F8F5F0EE8420D21CFEADF075F008EF2FEC
:10009100FFED33FD4007985006D5F0F222C398FDDD
:0500A1000FD5F0EA227A
:1000A600E88FF0A4CC8BF0A42CFCE98EF0A42CFCF9
:1000B6008AF0EDA42CFCEA8EF0A4CDA8F08BF0A477
:1000C6002DCC3825F0FDE98FF0A42CCD35F0FCEBD6
:1000D6008EF0A4FEA9F0EB8FF0A4CFC5F02ECD399B
:0F00E600FEE43CFCEAA42DCE35F0FDE43CFC2208
:1000F50075F008758200EF2FFFEE33FECD33CDCCC2
:1001050033CCC58233C5829BED9AEC99E582984044
:100115000CF582EE9BFEED9AFDEC99FC0FD5F0D621
:10012500E4CEFBE4CDFAE4CCF9A88222B800C1B94B
:100135000059BA002DEC8BF084CFCECDFCE5F0CB89
:10014500F97818EF2FFFEE33FEED33FDEC33FCEBC2
:1001550033FB10D703994004EB99FB0FD8E5E4F97D
:10016500FA227818EF2FFFEE33FEED33FDEC33FC6A
:10017500C933C910D7059BE99A4007EC9BFCE99A5E
:10018500F90FD8E0E4C9FAE4CCFB2275F010EF2FA3
:10019500FFEE33FEED33FDCC33CCC833C810D707A3
:1001A5009BEC9AE899400AED9BFDEC9AFCE899F8DE
:0E01B5000FD5F0DAE4CDFBE4CCFAE4C8F92271
:100CB500C2D5E830E70FB2D5E4C39BFBE49AFAE46A
:100CC50099F9E498F8EC30E717B2D5120CEB12015C
:100CD50031E4C39BFBE49AFAE499F9E498F88003BC
:100CE50012013130D50DE4C39FFFE49EFEE49DFD66
:040CF500E49CFC225D
:1001C300EB9FF5F0EA9E42F0E99D42F0EC6480C8B3
:0601D30064809845F02253
:1001D900E8600FECC313FCED13FDEE13FEEF13FF04
:0301E900D8F12228
:1001EC00E86010ECA2E713FCED13FDEE13FEEF1329
:0401FC00FFD8F02216
:10020000E8600FEFC333FFEE33FEED33FDEC33FC5C
:03021000D8F12200
:0C021300E6FC08E6FD08E6FE08E6FF2217
:0C021F00ECF608EDF608EEF608EFF6220B
:10090A00020B96E493A3F8E493A34003F68001F262
:10091A0008DFF48029E493A3F85407240CC8C333EE
:10092A00C4540F4420C8834004F456800146F6DFBD
:10093A00E4800B0102040810204080900C5FE47EE2
:10094A00019360BCA3FF543F30E509541FFEE493B2
:10095A00A360010ECF54C025E060A840B8E493A379
:10096A00FAE493A3F8E493A3C8C582C8CAC583CAA4
:10097A00F0A3C8C582C8CAC583CADFE9DEE780BE5C
:010CB400003F
:00000001FF
